:04000000EEEF2FF000
:1000080000C016F001C015F0829EF0A208D0F0A83A
:1000180006D0F092D66AD6CFD7FF00017583F2A436
:1000280005D0F2AA03D00001F29475859EA01ED0D7
:100038009DA01CD09E90E20ECF6EB40ECE6E50A046
:1000480002D0182A01D0186A000175A902D0362AF0
:1000580001D0366A75AB02D0342A01D0346A402AFE
:10006800280E405C03E3406A05017F7BF2A037D08D
:10007800F2A635D0320E446E44C000F04406005259
:1000880001E0FAD781BA02D0D88001D0D89004E232
:10009800000175AF23D004D0000175AF01D01ED088
:1000A80081BA02D0018201D0019281B802D0D880F1
:1000B80001D0D89001B202D008E302D001E305D004
:1000C80005017F810001759104D005017F91000130
:1000D800758181BA02D0758F01D0759FF29016C0D4
:0800E80000F015C001F0110049
:1000F0000B820BAE82EF00F00368026801680068B3
:080100000A360232FF0E120064
:0E010800026A016A006A086A036A000E1200A9
:100116000B840BAE96EF00F0010E036E026A016AC5
:0A012600006A0A360232FF0E1200D2
:080130000AAE029E000E12004F
:10013800060133B102D08C9001D08C8033B302D049
:100148008C9201D08C8233B502D08C9401D08C84EF
:0C01580033B702D08C9601D08C861200C8
:10016400010E0601335D08E3270E0D6E0D2EFED73A
:0A017400000000003307F4D712006A
:10017E000C6A0E6A0250D8A4D8EF00F001C002F04B
:10018E0000C001F0006A0E860250D8A4D8EF00F02D
:10019E0001C002F0016A0E960E880250D8B4EAEF42
:1001AE0000F00E50035ED8A4D8A0EFEF00F0D89068
:1001BE0002BEF4EF00F0003601360236032EDFEFFA
:1001CE0000F0EFEF00F0010E0C6E97DFF7EF00F08E
:1001DE00020E0C6E99DFF7EF00F0040E0C6EA1DF2D
:0201EE001200FD
:1001F0007C0E06011F25F66E740EF76E000EF722B8
:10020000000EF86E000EF8220900F5CF00F0000E87
:08021000016E026E036E120084
:10021800899889B802D0899A01D0898A89BA02D086
:100228008D9001D08D808DB002D08D9201D08D82BD
:100238008DB202D08D9401D08D848DB402D08B9074
:1002480001D08B808C988CB802D08C9A01D08C8A83
:100258008C9C2EC633F66CDF2FB102D08C9A01D05D
:100268008C8A30B102D08C9801D08C88898825C0BE
:1002780033F674DF899817C033F670DF2BC633F670
:1002880057DF2CB102D08C9A01D08C8A2DB102D0C4
:100298008C9801D08C88898A25C033F65FDF899ACB
:1002A80017C033F65BDF31B102D08C9C01D08C8C47
:1002B80025C033F653DF8C9C17C033F64FDF28C6B2
:1002C80033F636DF29B102D08C9A01D08C8A2AB154
:1002D80002D08C9801D08C888D8025C033F63EDF03
:1002E8008D9017C033F63ADF25C633F621DF26B1E5
:1002F80002D08C9A01D08C8A27B102D08C9801D078
:100308008C888D8225C033F629DF8D9217C033F68D
:1003180025DF32B102D08C9E01D08C8E25C033F6F9
:100328001DDF8C9E17C033F619DF22C633F600DFB7
:1003380023B102D08C9A01D08C8A24B102D08C9837
:1003480001D08C888D8425C033F608DF8D9417C0C2
:1003580033F604DF1FC633F6EBDE20B102D08C9AE9
:1003680001D08C8A21B102D08C9801D08C888B80E6
:1003780025C033F6F3DE8B9017C033F6EFDE8C988A
:0C0388008CB802D08C9A01D08C8A120034
:100394000B6A0A6A096A086A0E6A0334083604504A
:1003A400085E0550D8A0053C095E0650D8A0063C5E
:1003B4000A5E0750D8A0073C0B5EE86AD8A0010E7D
:1003C4000E5E0336070E0C6E0334083609360A3601
:1003D4000B360E36045003A012D0085E0550D8A088
:1003E400053C095E0650D8A0063C0A5E0750D8A01A
:1003F400073C0B5EE86AD8A0010E0E5E11D00826F9
:100404000550D8B0053C09260650D8B0063C0A264B
:100414000750D8B0073C0B26E86AD8B0010E0E2668
:1004240003360C2ED1D70234083609360A360B3679
:100434000E36045003A012D0085E0550D8A0053C27
:10044400095E0650D8A0063C0A5E0750D8A0073CB7
:100454000B5EE86AD8A0010E0E5E11D00826055086
:10046400D8B0053C09260650D8B0063C0A260750E9
:10047400D8B0073C0B26E86AD8B0010E0E26023627
:10048400070E0C6E0234083609360A360B360E3661
:10049400045002A012D0085E0550D8A0053C095EA5
:1004A4000650D8A0063C0A5E0750D8A0073C0B5E55
:1004B400E86AD8A0010E0E5E11D008260550D8B007
:1004C400053C09260650D8B0063C0A260750D8B089
:1004D400073C0B26E86AD8B0010E0E2602360C2E15
:1004E400D1D70134083609360A360B360E36045095
:1004F40002A012D0085E0550D8A0053C095E065043
:10050400D8A0063C0A5E0750D8A0073C0B5EE86AF8
:10051400D8A0010E0E5E11D008260550D8B0053CB7
:1005240009260650D8B0063C0A260750D8B0073C26
:100534000B26E86AD8B0010E0E260136070E0C6EA3
:100544000134083609360A360B360E36045001A03B
:1005540012D0085E0550D8A0053C095E0650D8A00C
:10056400063C0A5E0750D8A0073C0B5EE86AD8A098
:10057400010E0E5E11D008260550D8B0053C0926A0
:100584000650D8B0063C0A260750D8B0073C0B26C4
:10059400E86AD8B0010E0E2601360C2ED1D70034ED
:1005A400083609360A360B360E36045001A012D02E
:1005B400085E0550D8A0053C095E0650D8A0063C4C
:1005C4000A5E0750D8A0073C0B5EE86AD8A0010E6B
:1005D4000E5E11D008260550D8B0053C09260650F9
:1005E400D8B0063C0A260750D8B0073C0B26E86A68
:1005F400D8B0010E0E260036070E0C6E00340836F5
:1006040009360A360B360E36045000A012D0085EA6
:100614000550D8A0053C095E0650D8A0063C0A5EE9
:100624000750D8A0073C0B5EE86AD8A0010E0E5E06
:1006340011D008260550D8B0053C09260650D8B07C
:10064400063C0A260750D8B0073C0B26E86AD8B007
:10065400010E0E2600360C2ED1D700B00ED0045059
:1006640008260550D8B0053C09260650D8B0063CEB
:0C0674000A260750D8B0073C0B261200E5
:100680000134083609360450085E0550D8A0053CF0
:10069000095E003601360F0E0C6E0134083609363D
:1006A000045000A006D0085E0550D8A0053C095EA5
:1006B00005D008260550D8B0053C0926003601367D
:1006C0000C2EEBD700B006D0045008260550D8B049
:0806D000053C092600001200A0
:1006D8000CB0AEEF03F00CA254EF04F00E6A000E5B
:1006E8000264C5EF03F0F00E0214D8A490EF03F0F3
:1006F800023A01380F0B02260138F00B016E003860
:100708000F0B01260038F00B006E08380F0B00267F
:100718000838F00B086E0E84D89002BEA9EF03F0DB
:1007280008360036013602360E2A02BEA9EF03F05B
:1007380008360036013602360E2A02BEA9EF03F04B
:1007480008360036013602360E2A0E5003644AEF88
:1007580004F0035E0BBC08AE4FEF04F0D880800EA7
:1007680008640030000E002201220222D8A04FEFB8
:1007780004F0023201320032034A54EF04F04FEF22
:1007880004F001C002F000C001F008C000F0086ADF
:10079800000E0E860264FCEF03F0F00E0214D8A4DB
:1007A800E4EF03F0023A01380F0B02260138F00B90
:1007B800016E00380F0B01260038F00B006E0E8416
:1007C800D89002BEA9EF03F00036013602360E2A91
:1007D80002BEA9EF03F00036013602360E2A02BE29
:1007E800A9EF03F00036013602360E2AA9EF03F00E
:1007F80001C002F000C001F0006A000E0E960E88DB
:10080800026429EF04F0F00E0214D8A414EF04F0E7
:10081800023A01380F0B02260138F00B016E0E84E4
:10082800D89002BEA9EF03F0013602360E2A02BEA6
:10083800A9EF03F0013602360E2A02BEA9EF03F033
:10084800013602360E2AA9EF03F001C002F0016A50
:10085800000E0E86026459EF04F0F00E0214D8A4BC
:1008680038EF04F0023A0E84D89002BEA9EF03F0E4
:1008780002360E2A02BEA9EF03F002360E2A02BE85
:10088800A9EF03F002360E2AA9EF03F0010E0C6E51
:100898003EDC5CEF04F0020E0C6E46DC5CEF04F00C
:1008A800040E0C6E21DC5CEF04F0080E0C6E28DCE4
:0208B80012002C
:1008BA00C7B409D01F0EC514016E0150000A03E126
:0A08CA00010E006E01D0006A12005A
:0808D4000B6A0B86FF0E1200F7
:1008DC00F250026EF29E0500FF6A0150FE6E00504F
:0808EC00FD6E02BEF28E120047
:1008F4000B800BAE86EF04F0026A0AAEFF0E026EA6
:0C090400016E006E0A360232FF0E120077
:100910000B6A0C6A0A6A0350D8B4BDEF04F00A9E51
:10092000028E860E035E03BE9BEF04F0D8B49BEFED
:1009300004F0C0EF04F0036C080E035CD8A0A9EF2C
:1009400004F0036E0236026A0350D8A4D890B2EFC6
:1009500004F00350D8B4B2EF04F0D8900232032E62
:10096000ADEF04F00BBC02A0BDEF04F0D8A0BDEFCA
:1009700004F0022AD8B4C7EF04F0016ACCEF04F007
:100980000B800BAED0EF04F0016AD0EF04F0010E43
:100990000C6EB0DFD2EF04F0000E0C6ED2EF04F05C
:0A09A000FF0E0C6E0250006E1200F4
:1009AA00899889B802D0899A01D0898A89BA02D0ED
:1009BA008D9001D08D808DB002D08D9201D08D8224
:1009CA008DB202D08D9401D08D848DB402D08B90DB
:1009DA0001D08B808C988CB802D08C9A01D08C8AEA
:1009EA008C9C15C633F69CEC00F016B102D08C9A9A
:1009FA0001D08C8A17B102D08C9801D08C88898852
:100A0A0018530AE125C033F6B2EC00F0899817C0F2
:100A1A0033F6B2EC00F009D01DC633F6B2EC00F0A2
:100A2A0089981EC633F6B2EC00F011C633F69CEC78
:100A3A0000F012B102D08C9A01D08C8A13B102D084
:100A4A008C9801D08C88898A14530AE125C033F620
:100A5A00B2EC00F0899A17C033F6B2EC00F009D074
:100A6A001DC633F6B2EC00F0899A1EC633F6B2EC14
:100A7A0000F019B102D08C9C01D08C8C1A530AE177
:100A8A0025C033F6B2EC00F08C9C17C033F6B2ECFA
:100A9A0000F009D01DC633F6B2EC00F08C9C1EC6DD
:100AAA0033F6B2EC00F00DC633F69CEC00F00EB152
:100ABA0002D08C9A01D08C8A0FB102D08C9801D0C6
:100ACA008C888D8010530AE125C033F6B2EC00F011
:100ADA008D9017C033F6B2EC00F009D01DC633F67C
:100AEA00B2EC00F08D901EC633F6B2EC00F009C6E7
:100AFA0033F69CEC00F00AB102D08C9A01D08C8AB1
:100B0A000BB102D08C9801D08C888D820C530AE1EB
:100B1A0025C033F6B2EC00F08D9217C033F6B2EC72
:100B2A0000F009D01DC633F6B2EC00F08D921EC655
:100B3A0033F6B2EC00F01BB102D08C9E01D08C8E41
:100B4A001C530AE125C033F6B2EC00F08C9E17C0A4
:100B5A0033F6B2EC00F009D01DC633F6B2EC00F061
:100B6A008C9E1EC633F6B2EC00F005C633F69CEC3A
:100B7A0000F006B102D08C9A01D08C8A07B102D05B
:100B8A008C9801D08C888D8408530AE125C033F6ED
:100B9A00B2EC00F08D9417C033F6B2EC00F009D035
:100BAA001DC633F6B2EC00F08D941EC633F6B2ECD5
:100BBA0000F001C633F69CEC00F002B102D08C9A28
:100BCA0001D08C8A03B102D08C9801D08C888B809A
:100BDA0004530AE125C033F6B2EC00F08B9017C03B
:100BEA0033F6B2EC00F009D01DC633F6B2EC00F0D1
:100BFA008B901EC633F6B2EC00F08C988CB802D0FB
:080C0A008C9A01D08C8A1200C3
:100C12000450000A08E10550000A05E1FF0E006ECB
:100C22007F0E016E57D00D6A096A086A01500010E2
:100C3200D8B4000C015005180A6E0ABE0D1E0B6ACC
:100C420005AE05D0041E051E042AD8B4052A01AE3D
:100C520005D0001E011E002AD8B4012A0150051039
:100C62000A6E0ABE10D00BDD0BB020D00DAE000C08
:100C7200001E011E002AD8B4012A081E091E082AD5
:100C8200D8B4092A000C05AE0DD001BE07D0015020
:100C9200096E0050086E016A006AE8D7016A006AAC
:100CA200002A000C011E001E0B2ADDD7082AD8B428
:100CB200092A0450085CD8A4D9D70550095CD8A4E5
:100CC200D5D7096A086A002AD8B4012A01AECED75C
:060CD2000000FF0C1200FF
:100CD800E80E046E030E056E000E066E076EF7C56D
:100CE80000F0F8C501F0F9C502F0FAC503F0CAEC46
:100CF80001F000C048F0640E046E000E056E066E2A
:100D0800076EF7C500F0F8C501F0F9C502F0FAC59D
:100D180003F0CAEC01F00A0E046E000E056E066EB2
:100D2800076ECAEC01F008C000F009C001F00AC063
:100D380002F00BC003F000C041F00A0E046E000E72
:100D4800056E066E076EF7C500F0F8C501F0F9C527
:100D580002F0FAC503F0CAEC01F00A0E046E000EA8
:100D6800056E066E076ECAEC01F008C000F009C0F7
:100D780001F00AC002F00BC003F000C047F00A0EF1
:100D8800046E000E056E066E076EF7C500F0F8C516
:100D980001F0F9C502F0FAC503F0CAEC01F008C089
:100DA80000F009C001F00AC002F00BC003F000C057
:040DB80026F012000F
:100DBC0000C008F00B6A0C6A9E0E036E0A6A026A87
:0C0DCC00016A006A020E0C6E81DC12004D
:100DD800A1C51FF606011F331F9F1F331F9F1F3317
:100DE8001F9F1F331F9FA2C520F6216B0F0E050101
:100DF800A1150601226F236B246BA0C525F62533A8
:100E0800259F2533259F2533259F2533259F266B31
:100E1800276B0F0E0501A0150601286F296B2A6B99
:100E28009FC52BF62B332B9F2B332B9F2B332B9FBD
:100E38002B332B9F2C6B2D6B0F0E05019F15060175
:100E48002E6F2F6B000E50B8010E306FF7C531F6BC
:0A0E5800F7C532F60CEC01F01200B1
:100E62000450000A12E10550000A0FE10650000A80
:100E72000CE10750000A09E1FF0E006EFF0E016E41
:100E82007F0E026EFF0E036EA7D0086A096A075032
:100E9200D8B4DCEF07F00350D8B4E0EF07F002500B
:100EA20006180A6E028E068E0E6A02C008F001C093
:100EB2000CF000C00DF004500D5E0550D8A0053CAA
:100EC2000C5E0650D8A0063C085E086A0C6A0D6AE1
:100ED200D8A073EF07F0D890023201320032083204
:100EE200010E0E6E0750035ED8A080EF07F07E0E53
:100EF2000E240326D8B0E5EF07F086EF07F07E0E4A
:100F02000E240326D8A0EAEF07F0180E0B6E0D365A
:100F12000C3608360036013602360E360450005EB4
:100F22000550D8A0053C015E0650D8A0063C025EE2
:100F320006340E120EA0A1EF07F00D80ACEF07F001
:100F4200045000260550D8B0053C01260650D8B002
:100F5200062802260D900B2E88EF07F0D2EF07F03D
:100F6200D8900036013602360E360450005E055027
:100F7200D8A0053C015E0650D8A0063C025E0634AD
:100F82000E10010B0D26D8B00C2AD8B4082AD8A40A
:100F9200D2EF07F008320C320D32032AD8B4E5EF53
:100FA20007F00AAE089E0850026E0C50016E0D50FA
:100FB200006EEDEF07F0010E8CDCEDEF07F0020E94
:100FC20084EC00F0EDEF07F0040E78EC00F0EDEFAA
:0A0FD20007F0080E8BEC00F012008F
:100FDC0000C008F00150006E016A026A036A0B6AD5
:100FEC000C6A016A026A036A960E036E0A6A00AE04
:100FFC0006EF08F0081E001E082AD8B4002A0A8E34
:10100C0000C001F008C000F0086A026ABFEC00F0F2
:02101C001200C0
:10101E00086A080E0C6E003408360450085ED8B00C
:0E102E0002D00826D89000360C2EF5D71200FE
:10103C00086A096A000E07620364A3EF08F0025005
:10104C0006180A6E075003267E0ED8A034EF08F05F
:10105C00035ED8B0A8EF08F038EF08F0035ED8A014
:10106C00ADEF08F0028E068E02C00EF001C00BF040
:10107C0000C00DF000500402F4CF0CF0015005023A
:10108C00F4CF00F0F3CF08F00402F3500C26F45028
:10109C000822000E00220D500502F3500C26F450CD
:1010AC000822000E002202500402F3500826F450CD
:1010BC00002202500502016A000E0122F3500026A4
:1010CC00F45001220D500602F3500826F450002271
:1010DC00026A000E012202220B500602F350002677
:1010EC00F4500122000E02220E500602F35001268B
:1010FC00F450022202BE8BEF08F00836003601369F
:10110C0002360306D8B4ADEF08F09EEF08F0D88095
:10111C00800E08640030000E002201220222D8A0AA
:10112C009EEF08F0023201320032034AA8EF08F0B9
:10113C000AAE029E000EB0EF08F0010E84EC00F037
:10114C00B0EF08F0020E78EC00F0B0EF08F0040EEF
:06115C008BEC00F0120014
:10116200010E0501F725E96E000EF821EA6EEECFB9
:101172001FF6F8EC00F001C002F600C001F605010E
:10118200FF6B0601006BF7C5E9FFF8C5EAFFEECF7A
:101192001FF6F8EC00F002C007F001C006F000C034
:1011A20005F0046A04500501FF27055006010023DB
:1011B2000650012307500223020E0501F725E96EAE
:1011C200000EF821EA6EEECF1FF6F8EC00F00050A8
:1011D2000501FF25FB6F0150060100210501FC6F8F
:1011E2000250060101210501FD6F03500601022193
:1011F2000501FE6FF96BFA6B800EFA19006E800E14
:10120200005C02E1180EF95D1BE2FBA10AD08B82A1
:1012120000000000000000000000000000008B92AF
:1012220005D08B820000000000008B92FE33FD335C
:10123200FC33FB33FE9FFEBDFE8FF94BFA2BDCD74E
:02124200120098
:1012440030C0F7F531C0F8F532C0F9F533C0FAF51E
:10125400C582C5A220D030503110321033101AE0AC
:101264000501F751F811F911FA110DE182C5E1FFF9
:1012740083C5E2FF060EE66E80C500F081C501F06D
:101284006EEC04F008D0010E0501F75F000EF85B68
:08129400F95BFA5BDED71200E2
:10129C0030C0F9F531C0FAF532C0FBF533C0FCF5BE
:1012AC009E96C5869EB620D0305031103210331029
:1012BC001AE00501F951FA11FB11FC110DE182C57F
:1012CC00E1FF83C5E2FF030EE66E80C500F081C529
:1012DC0001F06EEC04F008D0010E0501F95F000E70
:1012EC00FA5BFB5BFC5BDED70501C9CFF8F5F75168
:1012FC00000A02E1C58A01D0C59A9E96C58830C005
:10130C00F9F531C0FAF532C0FBF533C0FCF59EB6E9
:10131C0020D030503110321033101AE00501F95141
:10132C00FA11FB11FC110DE182C5E1FF83C5E2FF4F
:10133C00030EE66E80C500F081C501F06EEC04F082
:10134C0008D0010E0501F95F000EFA5BFB5BFC5B3C
:08135C00DED7F8C500F0120015
:04136400C58412002A
:10136800BA0E0501886F080E896F000E8A6F000E8D
:101378008B6FE00E846F130E856F000E866F000E64
:10138800876F440E976F120E986F000E996F000EBC
:101398009A6F9C0E9B6F120E9C6FF70E9D6F050E39
:1013A8009E6F740E936F140E946FF70E956F050E63
:1013B800966F640E8F6F130E906F000E916F000E74
:1013C800926F939093928A908A9293809382C79E09
:0813D800C79C380EC66E12001E
:1013E00030C0F9F531C0FAF532C0FBF533C0FCF579
:1013F0000501F76BF86BF851120802E1F7518E08FE
:1014000009E35DEC04F0005201E004D00501F74B64
:10141000F82BF1D70501120EF85D02E18F0EF75D92
:1014200003E37B0E006E25D0C580C5A021D03050CF
:101430003110321033101BE0F951FA11FB11FC117D
:101440000FE182C5E1FF83C5E2FF050EE66E80C5B0
:1014500000F081C501F06EEC04F0010E006E09D0C1
:10146000010E0501F95F000EFA5BFB5BFC5BDDD74B
:04147000006A1200FC
:101474009E96F7C5C9FF30C0F8F531C0F9F532C002
:10148400FAF533C0FBF5C7A422D030503110321026
:1014940033101CE00501F851F911FA11FB110FE1A9
:1014A40082C5E1FF83C5E2FF040EE66E80C500F04D
:1014B40081C501F06EEC04F0010E006E3BD0010E0C
:1014C4000501F85F000EF95BFA5BFB5BDCD730C00B
:1014D400F8F531C0F9F532C0FAF533C0FBF59EB624
:1014E40022D030503110321033101CE00501F85175
:1014F400F911FA11FB110FE182C5E1FF83C5E2FF87
:10150400040EE66E80C500F081C501F06EEC04F0B7
:10151400010E006E0FD0010E0501F85F000EF95B9D
:10152400FA5BFB5BDCD7C5BC02D0006A03D0C58480
:06153400020E006E120021
:10153A00016A026A800E0218006E800E005C02E1E7
:10154A00500E015C23E205017FA713D0828E270E7D
:10155A000D6E0D2EFED700000000829E080E0C6E46
:10156A00C90E0D6E0D2EFED70C2EFCD70000000002
:10157A000AD0080E0C6EC90E0D6E0D2EFED70C2E5B
:0E158A00FCD700000000014A022AD4D712004C
:10159800016A026A800E0218006E800E005C02E189
:1015A800500E015C22E205017FA712D0828E270E21
:1015B8000D6E0D2EFED700000000829E070E0C6EE9
:1015C800B20E0D6E0D2EFED70C2EFCD700000AD0E1
:1015D800080E0C6EC90E0D6E0D2EFED70C2EFCD704
:1015E80000000000014A022AD5D7070E0B6E170E1D
:1015F8000C6E6A0E0D6E0D2EFED70C2EFCD70B2E20
:10160800FAD70000016A026A800E0218006E800E86
:10161800005C02E1500E015C22E205017FA712D0B6
:10162800828E270E0D6E0D2EFED700000000829EC2
:10163800070E0C6EB20E0D6E0D2EFED70C2EFCD7BB
:1016480000000AD0080E0C6EC90E0D6E0D2EFED7C6
:101658000C2EFCD700000000014A022AD5D7120040
:101668000501EA6BE9C5A9FFA69EA69CA698A680D7
:0A167800A8CFEAF5EAC500F0120061
:101682001E0EC86E70DEABDED00E0501F76FF1DE06
:101692000501F76BEEDEE9C5F7F5EBDEEAC5F7F516
:1016A200E8DE0501ED530AE0EDB102D0EB9D01D079
:1016B200EB8DECB102D0EB9B01D0EB8BEBC5F7F5D8
:1016C200D8DEEFC5F7F5D5DEEEC5F7F5D2DEF0C50B
:1016D200F7F5CFDEF1C5F7F5CCDE100E0501F76F99
:0616E200C8DE3FDE12002D
:1016E80042C0F7F543C0F8F5000E0501F96FFA6F2F
:1016F8006CEC06F00F0E06011F6F010E206F010E35
:10170800216F0F0E226F010E236F010E246F41C04F
:1017180025F6266B276B47C028F6296B2A6B0F0E18
:101728002B6F010E2C6F010E2D6F0F0E2E6F010EF9
:101738002F6F010E306F316B326B0CEC01F0120021
:10174800A4C51FF606011F331F9F1F331F9F1F339A
:101758001F9F1F331F9F010E206F216B0F0E050166
:10176800A4150601226F236B010E246FA6C525F66A
:101778002533259F2533259F2533259F2533259FF1
:10178800010E266F276B0F0E0501A6150601286F9F
:10179800296B010E2A6FA7C52BF62B332B9F2B33F2
:1017A8002B9F2B332B9F2B332B9F010E2C6F2D6BD5
:1017B8000F0E0501A71506012E6F2F6B010E306F56
:0A17C800316B326B0CEC01F01200E3
:1017D200016A026A800E0218006E800E005C02E14D
:1017E200C80E015C14E2828E270E0D6E0D2EFED7FE
:1017F20000000000829E0A0E0C6E580E0D6E0D2E19
:10180200FED70C2EFCD70000014A022AE3D70A0EAB
:101812000B6E220E0C6EA10E0D6E0D2EFED70C2E2F
:10182200FCD70B2EFAD7016A026A800E0218006EEC
:10183200800E005C02E1C80E015C14E2828E270E6B
:101842000D6E0D2EFED700000000829E0A0E0C6E59
:10185200580E0D6E0D2EFED70C2EFCD70000014A3D
:06186200022AE3D7120088
:10186800050176519F19D8B4EDD10001758B000E92
:10187800345C40E334500C083DE30F0E06011F6F43
:10188800206B216B78C522F62233229F2233229FB8
:101898002233229F2233229FA2C523F6246B0F0EE8
:1018A800050178150601256F266B276B77C528F685
:1018B8002833289F2833289F2833289F2833289F98
:1018C800296B2A6B0F0E0501771506012B6F2C6B00
:1018D8002D6B76C52EF62E332E9F2E332E9F2E334C
:1018E8002E9F2E332E9F2F6B306B316B326B0CEC8F
:1018F80001F0A7D10D0E345C38E33450190835E3F4
:1019080006010F0E1F6F206B216B0F0E226F236BCA
:10191800246B78C525F62533259F2533259F253348
:10192800259F2533259FA2C526F6276B0F0E050197
:1019380078150601286F296B2A6B77C52BF62B3390
:101948002B9F2B332B9F2B332B9F2B332B9F2C6BB6
:101958002D6B0F0E0501771506012E6F2F6B306B5F
:10196800316B326B0CEC01F06CD11A0E345C35E340
:101978003450260832E306010F0E1F6F206B216BCF
:101988000F0E226F236B246B0F0E256F266B276BB0
:1019980078C528F62833289F2833289F2833289F7E
:1019A8002833289FA2C529F62A6B0F0E0501781542
:1019B80006012B6F2C6B2D6B77C52EF62E332E9FC1
:1019C8002E332E9F2E332E9F2E332E9F2F6B306B50
:1019D800316B326B0CEC01F034D1270E345C32E3FE
:1019E800345033082FE30F0E05019F1506011F6FB2
:1019F800206B000E50B8010E216F0F0E226F236B63
:101A0800246B0F0E256F266B276B0F0E286F296B23
:101A18002A6B78C52BF62B332B9F2B332B9F2B331D
:101A28002B9F2B332B9FA2C52CF62D6B0F0E050178
:101A3800781506012E6F2F6B306B316B326B0CEC07
:101A480001F0FFD0340E345C38E33450400835E3FD
:101A580006019FC51FF61F331F9F1F331F9F1F338C
:101A68001F9F1F331F9F206B216B0F0E05019F15B2
:101A78000601226F236B000E50B8010E246F0F0E63
:101A8800256F266B276B0F0E286F296B2A6B0F0E9D
:101A98002B6F2C6B2D6B78C52EF62E332E9F2E3385
:101AA8002E9F2E332E9F2E332E9FA2C52FF6306BDE
:101AB800316B326B0CEC01F0C4D0410E345C31E375
:101AC80034504D082EE30F0E0501A01506011F6FB7
:101AD800206B216B9FC522F62233229F2233229F3F
:101AE8002233229F2233229F236B246B0F0E050182
:101AF8009F150601256F266B000E50B8010E276F43
:101B08000F0E286F296B2A6B0F0E2B6F2C6B2D6B0A
:101B18000F0E2E6F2F6B306B316B326B0CEC01F0AC
:101B280090D04E0E345C3AE334505A0837E306013D
:101B3800A0C51FF61F331F9F1F331F9F1F331F9FF3
:101B48001F331F9F206B216B0F0E0501A015060187
:101B5800226F236B246B9FC525F62533259F2533DC
:101B6800259F2533259F2533259F266B276B0F0E31
:101B780005019F150601286F296B000E50B8010E4C
:101B88002A6F0F0E2B6F2C6B2D6B0F0E2E6F2F6B7A
:101B9800306B316B326B0CEC01F053D05B0E345C64
:101BA8003CE33450670839E30F0E0501A11506011F
:101BB8001F6F206B216BA0C522F62233229F223390
:101BC800229F2233229F2233229F236B246B0F0EE6
:101BD8000501A0150601256F266B276B9FC528F602
:101BE8002833289F2833289F2833289F2833289F65
:101BF800296B2A6B0F0E05019F1506012B6F2C6BA5
:101C0800000E50B8010E2D6F0F0E2E6F2F6B306B1C
:101C1800316B326B0CEC01F014D0680E345C11E3BC
:101C28000001759B346A090E006E760EE16E050E92
:101C3800E26E9F0EE96E050EEA6EEECFE6FF000635
:101C4800FCE105D0010E0501F76FECEC06F012007F
:101C5800050176519F19D8B453D15080570E185C9E
:101C680010E35090186A090E006E760EE16E050EAC
:101C7800E26E9F0EE96E050EEA6EEECFE6FF0006F5
:101C8800FCE118C0F5F5F533F59FF533F59FF5330D
:101C9800F59FF00E7815026EF00EA115016E025038
:101CA80001181EE078C500F00032009E0032009E48
:101CB8000032009E0032009EF5510026016A000E97
:101CC80001220A0E046E000E056E09EC06F008C02B
:101CD80000F009C001F000C0E9F501C0EAF50FD035
:101CE800040E006EA1C5E9F5000E0501EA6F00506B
:101CF80004E0E933E99FFF0FFBD7000EEA6FE9C55F
:101D08001FF6A2C520F60601216B05017851A1191D
:101D180017E00F0E7815006EF5510026016A000EC7
:101D280001220A0E046E000E056E09EC06F008C0CA
:101D380000F009C001F000C0EBF501C0ECF509D0D6
:101D48000F0E0501A115EB6FEC6B000EEC17000EE2
:101D5800EC6FEBC522F60601236B246BF00E050130
:101D68007715026EF00EA015016E025001181EE0E4
:101D780077C500F00032009E0032009E0032009EBF
:101D88000032009EF5510026016A000E01220A0E5B
:101D9800046E000E056E09EC06F008C000F009C0DC
:101DA80001F000C0EDF501C0EEF50FD0040E006E95
:101DB800A0C5EDF5000E0501EE6F005004E0ED330F
:101DC800ED9FFF0FFBD7000EEE6FEDC525F6060160
:101DD800266B276B05017751A01917E00F0E7715B1
:101DE800006EF5510026016A000E01220A0E046EEB
:101DF800000E056E09EC06F008C000F009C001F0FD
:101E080000C0EFF501C0F0F509D00F0E0501A015CF
:101E1800EF6FF06B000EF017000EF06FEFC528F6AD
:101E28000601296B2A6BF00E05017615026EF00E7D
:101E38009F15016E025001181EE076C500F00032B1
:101E4800009E0032009E0032009E0032009EF55136
:101E58000026016A000E01220A0E046E000E056EAD
:101E680009EC06F008C000F009C001F000C0F1F567
:101E780001C0F2F50FD0040E006E9FC5F1F5000EFB
:101E88000501F26F005004E0F133F19FFF0FFBD71B
:101E9800000EF26FF1C52BF606012C6B2D6B0501B8
:101EA80076519F1917E00F0E7615006EF551002632
:101EB800016A000E01220A0E046E000E056E09EC7E
:101EC80006F008C000F009C001F000C0F3F501C039
:101ED800F4F509D00F0E05019F15F36FF46B000E92
:101EE800F417000EF46FF3C52EF606012F6B000EE3
:101EF80050B8010E306F316B326B0CEC01F005D02D
:0C1F0800010E0501F76FECEC06F0120072
:101F14000B6A0A6A096A00500402F4CF09F0F3CF8D
:101F240008F001500502F4CF0BF0F3CF0AF0005093
:101F34000502F3500926F4500A22E86A0B220150E4
:101F44000402F3500926F4500A22E86A0B2208C05E
:101F540000F009C001F00AC002F00BC003F0120047
:101F64000501EA6BEB6B010EC26EE9C500F00036A9
:101F74000090003600900050C212C282C2A201D06A
:101F8400FDD7EA6BEB6BC4CFEAF5000EEB6FEAC545
:101F940001F0006A00C0EAF501C0EBF5C350002669
:0E1FA400000E012200C0EAF501C0EBF51200AC
:101FB20081B604D005017FB301D007D081A604D039
:101FC20005017FA301D001D016D081B60DD0050145
:101FD2007FB30AD081B602D07F8301D07F93CCEC4D
:101FE2000AF0010E006E08D081B603D005017F838E
:0A1FF20002D005017F93006A12007F
:101FFC00E9C5A9FFEAC5A8FFA69EA69CA698A6843B
:10200C00F29EF29C550EA76EAA0EA76EA682A6A2F1
:0C201C0001D0FDD7F28EF28CA6941200C9
:102028000501EA6BE95109081DE20A0E046EE9C5CB
:1020380000F00FEC08F000C0EAF500C0EAF5EA3756
:10204800EA91EA37EA91EA37EA91EA37EA910A0E21
:10205800046EE9C500F00FEC08F008C000F000506D
:0E206800EA1302D0E9C5EAF5EAC500F012005D
:1020760005017FA107D09DEC0AF005017F91010EB5
:08208600006E01D0006A120097
:10208E00050176519F19D8B45DD100017589000EF6
:10209E00365CD8A087D036505908D8A083D025C03A
:1020AE0000F0DEEC06F0000E046E000E056E340E2F
:1020BE00066E850E076E31EC07F000C0E9F501C023
:1020CE00EAF502C0EBF503C0ECF536C000F0DEEC2D
:1020DE0006F0E9C504F0EAC505F0EBC506F0ECC55F
:1020EE0007F01EEC08F088EC04F00050255C016E41
:1020FE0078C501F606010133019F0133019F0133BB
:10210E00019F0133019FA2C502F6036B010E046FFE
:10211E000F0E050178150601056F066B076B010E94
:10212E00086F77C509F60933099F0933099F0933EB
:10213E00099F0933099F0A6B0B6B010E0C6F0F0E73
:10214E000501771506010D6F0E6B0F6B010E106FEB
:10215E0076C511F61133119F1133119F1133119F53
:10216E001133119F126B136B010E146F0F0E0501BD
:10217E0076150601156F166B000E50B8010E176F0F
:10218E00010E186F010E196F010E1A6F010E1B6FE3
:10219E00010E1C6F01C01DF6015064081E6FD5ECB8
:1021AE0004F0CFD05A0E365C2CE33650690829E382
:1021BE0006010F0E016F026B036B046B0F0E056FA2
:1021CE00066B076B086B0F0E096F0A6B0B6B0C6BB4
:1021DE000F0E0D6F0E6B0F6B106B0F0E116F126BD0
:1021EE00136B146B0F0E156F166B176B186B196B39
:1021FE001A6B1B6B1C6B1D6B640E1E6FD5EC04F003
:10220E00A0D06A0E365CD8A088D03650C308D8A0AD
:10221E0084D025C000F0DEEC06F0000E046E000E39
:10222E00056E340E066E850E076E31EC07F000C09B
:10223E00E9F501C0EAF502C0EBF503C0ECF56A0E54
:10224E00365C006E016A000E015AEEEC07F0E9C52D
:10225E0004F0EAC505F0EBC506F0ECC507F01EEC80
:10226E0008F088EC04F0A1C501F606010133019FC8
:10227E000133019F0133019F0133019FA2C502F675
:10228E00036B010E046F0F0E0501A1150601056FFC
:10229E00066B076B010E086FA0C509F60933099F7F
:1022AE000933099F0933099F0933099F0A6B0B6B89
:1022BE00010E0C6F0F0E0501A01506010D6F0E6BB2
:1022CE000F6B010E106F9FC511F61133119F113355
:1022DE00119F1133119F1133119F126B136B010E4E
:1022EE00146F0F0E05019F150601156F166B000E6C
:1022FE0050B8010E176F010E186F010E196F010EF7
:10230E001A6F010E1B6F010E1C6F00C01DF60050E0
:10231E0064081E6FD5EC04F014D0C40E365C11E3C5
:10232E0000017599366A090E006E760EE16E050E85
:10233E00E26E9F0EE96E050EEA6EEECFE6FF000628
:10234E00FCE150D0A1C501F606010133019F013316
:10235E00019F0133019F0133019FA2C502F6036B5A
:10236E00046B0F0E0501A1150601056F066B076BB9
:10237E00086BA0C509F60933099F0933099F093374
:10238E00099F0933099F0A6B0B6B0C6B0F0E05012E
:10239E00A01506010D6F0E6B0F6B106B9FC511F61E
:1023AE001133119F1133119F1133119F1133119F4F
:1023BE00126B136B146B0F0E05019F150601156F33
:1023CE00166B000E50B8010E176F186B010E196FB9
:1023DE001A6B010E1B6F1C6B25C01DF617C01EF667
:0623EE00D5EC04F0120022
:1023F400E9C500F00032009E0032009E0032009ECB
:102404000032009E0A0E0002F3CF01F00F0E050108
:0A241400E915006E015000261200C9
:10241E00F29E0501EB6BEC6B800EEC19006E800EDC
:10242E00005C02E1060EEB5D09E2E9C5F7F5EAC5CF
:10243E00F8F5B1EC08F0EB4BEC2BEED7F28E040076
:02244E0012007A
:10245000050176519F19D8B462D100017589A00E8B
:10246000365C12E37599366A7597090E006E760E22
:10247000E16E050EE26E9F0EE96E050EEA6EEECF7E
:10248000E6FF0006FCE19BD136502502F3CF00F0B9
:10249000F4CF01F0A00E046E000E056E09EC06F0FC
:1024A00000C0F6F50050255C0501F56F000175A729
:1024B0009AD0A1C501F606010133019F0133019FA6
:1024C0000133019F0133019FA2C502F6036BF00E99
:1024D00005017815026EF00EA115016E025001186B
:1024E00003E0010EE96F01D0E96BE9C504F60F0EB8
:1024F000A1150601056F066B076B05017851A1193F
:1025000003E0010EEA6F01D0EA6BEAC508F6A0C548
:1025100009F606010933099F0933099F0933099F09
:102520000933099F0A6B0B6BF00E05017715026EDC
:10253000F00EA015016E0250011803E0010EEB6FC2
:1025400001D0EB6BEBC50CF60F0EA01506010D6F5D
:102550000E6B0F6B05017751A01903E0010EEC6FB4
:1025600001D0EC6BECC510F69FC511F606011133D6
:10257000119F1133119F1133119F1133119F126B52
:10258000136BF00E05017615026EF00E9F15016EAD
:102590000250011803E0010EED6F01D0ED6BEDC5A7
:1025A00014F60F0E9F150601156F166B000E50B82E
:1025B000010E176F050176519F1903E0010EEE6FB2
:1025C00001D0EE6BEEC518F60601196B1A6B1B6B8A
:1025D0001C6BF6C51DF60501F651640806011E6F59
:1025E000D5EC04F099D0060178C501F60133019FBE
:1025F0000133019F0133019F0133019FA2C502F600
:10260000036BF00E05017815026EF00EA115016E38
:102610000250011803E0010EEF6F01D0EF6BEFC520
:1026200004F60F0E78150601056F066B076B0501A2
:102630007851A11903E0010EF06F01D0F06BF0C5E5
:1026400008F677C509F606010933099F0933099F82
:102650000933099F0933099F0A6B0B6BF00E0501C3
:102660007715026EF00EA015016E0250011803E0FE
:10267000010EF16F01D0F16BF1C50CF60F0E77155D
:1026800006010D6F0E6B0F6B05017751A01903E06A
:10269000010EF26F01D0F26BF2C510F676C511F69D
:1026A00006011133119F1133119F1133119F113303
:1026B000119F126B136BF00E05017615026EF00E72
:1026C0009F15016E0250011803E0010EF36F01D057
:1026D000F36BF3C514F60F0E76150601156F166B26
:1026E000000E50B8010E176F050176519F1903E0D7
:1026F000010EF46F01D0F46BF4C518F60601196BE6
:102700001A6B1B6B1C6BF5C51DF60501F5516408B2
:1027100006011E6FD5EC04F00001757750D0A1C5FD
:1027200001F606010133019F0133019F0133019F2F
:102730000133019FA2C502F6036B046B0F0E050166
:10274000A1150601056F066B076B086BA0C509F69E
:102750000933099F0933099F0933099F0933099FE9
:102760000A6B0B6B0C6B0F0E0501A01506010D6FAC
:102770000E6B0F6B106B9FC511F61133119F113348
:10278000119F1133119F1133119F126B136B146B37
:102790000F0E05019F150601156F166B000E50B840
:1027A000010E176F186B010E196F1A6B010E1B6F5C
:1027B0001C6B25C01DF617C01EF6D5EC04F01200E8
:1027C000000175A107D09DEC0AF000017591010E82
:0827D000006E01D0006A120046
:1027D80000C0E9F501C0EAF5F0EC09F0D00E0501FA
:1027E800F76F3AEC0AF00501F76B3AEC0AF022ECC5
:1027F80009F0D10E0501F76F3AEC0AF0010E050158
:10280800F76F4EEC09F000C0EBF5010E0501F76F0C
:102818004EEC09F000C0ECF5010E0501F76F4EEC27
:1028280009F000C0EDF5010E0501F76F4EEC09F057
:1028380000C0F1F5010E0501F76F4EEC09F000C07C
:10284800F0F5010E0501F76F4EEC09F000C0F2F546
:102858000501F76B4EEC09F000C0F3F5B2EC09F096
:10286800000E0501EDBD010EEF6FEF530AE0000EFB
:10287800EDBB010EEE6F1F0EED15006E00C0EDF5FD
:1028880001D0EE6B090E006EE9C5E1FFEAC5E2FF73
:10289800EB0EE96E050EEA6EEECFE6FF0006FCE1F0
:0228A80012001C
:1028AA0073C0F7F5000E0501F86FF96FFA6FF73389
:1028BA00F79F000EF86FF96FFA6F6CEC06F0030ED3
:1028CA0006011F6F206B216B040E226F010E236F0E
:1028DA00246B0F0E256F266B276B0F0E286F296B43
:1028EA002A6B47C02BF62C6B2D6B26C02EF62F6B4E
:0C28FA00306B316B326B0CEC01F0120003
:10290600050E06011F6F206B216B010E226F010E53
:10291600236F246B0F0E256F266B276B0F0E286F08
:10292600296B2A6B0F0E2B6F2C6B2D6B000E50BE76
:10293600010E2E6F2F6B306B316B326B0CEC01F08E
:0229460012007D
:1029480072C0F7F5000E0501F86FF96FFA6FF733EB
:10295800F79F000EF86FF96FFA6F6CEC06F0030E34
:1029680006011F6F206B216B020E226F010E236F71
:10297800246B0F0E256F266B276B0F0E286F296BA4
:102988002A6B47C02BF62C6B2D6B26C02EF62F6BAF
:0C299800306B316B326B0CEC01F0120064
:1029A400070E06011F6F206B216B010E226F010EB3
:1029B400236F246B0F0E256F266B276B0F0E286F6A
:1029C400296B2A6B0F0E2B6F2C6B2D6B000E50BCDA
:1029D400010E2E6F2F6B306B316B326B0CEC01F0F0
:0229E4001200DF
:1029E6001FC0F7F5000E0501F86FF96FFA6F6CEC72
:1029F60006F0060E06011F6F206B216B030E226F79
:102A0600010E236F246B0F0E256F266B276B0F0E9F
:102A1600286F296B2A6B47C02BF62C6B2D6B26C0B3
:102A26002EF62F6B306B316B326B0CEC01F0120013
:102A360074C0F7F5000E0501F86FF96FFA6FF733FA
:102A4600F79F000EF86FF96FFA6F6CEC06F0030E45
:102A560006011F6F206B216B030E226F010E236F81
:102A6600246B0F0E256F266B276B0F0E286F296BB5
:102A76002A6B47C02BF62C6B2D6B26C02EF62F6BC0
:0C2A8600306B316B326B0CEC01F0120075
:102A9200070E06011F6F206B216B020E226F010EC3
:102AA200236F246B22C025F62533259F2533259FCE
:102AB2002533259F2533259F3FC026F6276B0F0E12
:102AC2002214286F296B2A6B20C02BF62B332B9FE5
:102AD2002B332B9F2B332B9F2B332B9F2C6B2D6B4D
:102AE2000F0E20142E6F2F6B306B010E316F326B75
:062AF2000CEC01F01200E3
:102AF800030E06011F6F206B216B010E226F010E62
:102B0800236F246B0F0E256F266B276B0F0E286F14
:102B1800296B2A6B0F0E2B6F2C6B2D6B1EC02EF69C
:0E2B28002F6B306B316B326B0CEC01F0120036
:102B36000900F5CFE6FF0006FBE10106F9E1120008
:102B460050A621D03BEC10F0005208E136DE0052D0
:102B560005E1D9EC0FF0005201E101D05096010ECB
:102B66000501F76FECEC06F0090E006E760EE16ECD
:102B7600050EE26E9F0EE96E050EEA6EEECFE6FFDB
:102B86000006FCE14ED03BEC10F0005206E0020ECF
:102B96003B5C03E23B2A356A08D00FDE005205E0B3
:102BA6003B50000802E23B06356AD9EC0FF00052B2
:102BB60004E00B0E4B6E000E4C6E3B50010A06E114
:102BC60035500E0803E3A4EC0BF02BD03B50020A61
:102BD60006E135500E0803E374EC0BF022D01950D1
:102BE600010A09E1000E000175BD010E0501F76F2E
:102BF600ECEC06F016D01950020A02E126DC11D0E0
:102C06001950030A03E147EC10F00BD01950040ADF
:102C160003E12CEC0EF005D01950050A02E134EC64
:042C26000CF012009C
:102C2A00010E06011F6F206B216B020E226F010E2F
:102C3A00236F246B0F0E256F266B276B0F0E286FE1
:102C4A00296B2A6B0F0E2B6F2C6B2D6B0F0E2E6FB1
:102C5A002F6B306B000E000175BD010E0601316F3E
:102C6A00000E000175BD010E0601326F0CEC01F079
:022C7A00120046
:102C7C0006011F6B206B216B226B010E236F246BE3
:102C8C000F0E256F266B276B0F0E286F296B2A6B87
:102C9C000F0E2B6F2C6B2D6B0F0E2E6F2F6B306B53
:0A2CAC00316B326B0CEC01F01200EA
:102CB600220E0C6E086A096A0A6A0B6A0C06D8B4F8
:102CC6001FD0D8900B320A32093208320332023250
:102CD60001320032D8A0F2D70C06D8B409D004507D
:102CE60008260550092206500A2207500B22EAD769
:102CF600045008260550092206500A2207500B22C6
:022D06001200B9
:102D0800086A096A100E0C6E013408360936045038
:102D1800085E0550D8A0053C095ED8B007D004501D
:102D280008260550D8B0053C0926D890003601364B
:062D38000C2EEAD7120088
:102D3E00E9EC0BF0010E0501E96FB2EC0FF000C0EB
:102D4E00D8F501C0D9F5020EE96FB2EC0FF000C054
:102D5E00E0F501C0E1F5E0C5DAF5E1C5DBF5D8C572
:102D6E0000F0D9C501F00A0E046E000E056E8AEC55
:102D7E000FF000C037F001C038F0000E396E3A6E19
:102D8E00E0C500F0E1C501F00A0E046E000E056EFE
:102D9E008AEC0FF000C02CF001C02DF0000E2E6E4C
:102DAE002F6ED66BD76B000ED75D02E10A0ED65D85
:102DBE0031E2D6C500F0D7C501F0003600900136DD
:102DCE00003600900136260E0024E16E050E01201D
:102DDE00E26ED8C5E6FFD9C5E6FF000EE66EE66EDA
:102DEE00D6C500F0D7C501F000360090013600368A
:102DFE00009001364E0E0024E16E050E0120E26EAB
:102E0E00DAC5E6FFDBC5E6FF000EE66EE66ED64BD4
:102E1E00D72BC9D7E96BB2EC0FF000C0DCF501C0BF
:102E2E00DDF52C0E046E010E056E8AEC0FF000C05F
:102E3E0028F001C029F0000E2A6E2B6ED66BD76BD0
:102E4E00010ED75D02E12C0ED65D1AE2D6C500F05A
:102E5E00D7C501F0003600900136003600900136DD
:102E6E00760E0024E16E000E0120E26EDCC5E6FF58
:102E7E00DDC5E6FF000EE66EE66ED64BD72BE0D72D
:102E8E000001759375957597759D05017F9B7F93D1
:102E9E0081BA03D00001758F02D00001759F050124
:102EAE007F910001759175995090759B5096546A5B
:102EBE00566A320E556E460E576E320E596E586A5F
:102ECE00280E5A6E5C6A640E5B6E500E5D6E8C0E32
:102EDE005F6E280E5E6E8C0E606F626B780E616F89
:102EEE00636B3C0E656F320E646F140E666FB40E1C
:102EFE00686F0A0E676FAA0E696F180E6B6F6A6B9A
:102F0E00780E6C6F6E6B6D6B780E6F6F780E716FD7
:102F1E00780E706F0501E96B34EC0BF000B002D047
:102F2E007F9901D07F89010EE96F34EC0BF000B070
:102F3E0002D07F9D01D07F8D020EE96F34EC0BF035
:102F4E0000C01EF0030EE96F34EC0BF000C072F0FF
:102F5E00040EE96F34EC0BF000C074F0050EE96F4F
:102F6E0034EC0BF000C073F0060EE96F34EC0BF08E
:102F7E0000B002D0509A01D0508A070EE96F34EC9F
:102F8E000BF000C025F000506408176E080EE96FB4
:102F9E0034EC0BF000B002D0509E01D0508E090ED2
:102FAE00E96F34EC0BF000C027F00A0EE96F34EC39
:102FBE000BF000B002D0509201D050820B0EE96F90
:102FCE0034EC0BF000C019F00C0EE96F34EC0BF082
:102FDE0000B002D0509401D050840D0EE96F34EC45
:102FEE000BF000C01FF00E0EE96F34EC0BF000B0CA
:102FFE0002D0509C01D0508C0F0EE96F34EC0BF0C8
:10300E0000C022F0100EE96F34EC0BF000C020F07F
:10301E00110EE96F34EC0BF000C03FF0120EE96FA9
:10302E0034EC0BF000C024F0130EE96F34EC0BF00F
:10303E0000C021F0140EE96F34EC0BF000C023F049
:10304E00150EE96F34EC0BF000B002D0509801D0A1
:10305E005088160EE96F34EC0BF000C04DF0170ED1
:10306E00E96F34EC0BF000C04FF0180EE96F34EC42
:10307E000BF000C04EF0190EE96F34EC0BF000C0EF
:10308E001AF01A0EE96F34EC0BF000B002D07F95F7
:10309E0001D07F851B0EE96F34EC0BF000B002D02F
:1030AE007F9701D07F877FA905D0120E786F120E01
:1030BE00A16F02D0786BA16B766B9F6B776BA06B59
:1030CE00796BA26B000E7FB9010E7A6F7AC5A3F5EC
:1030DE00010E7B6F010EA46F010E7C6F010EA56FAA
:1030EE00010E7D6F010EA66F190E7E6F190EA76F62
:1030FE001E0EC86EB4EC09F004005C0E0B6E510E81
:10310E000C6E600E0D6E0D2EFED70C2EFCD70B2EF8
:10311E00FAD70000000175A512D0090E006EE90E57
:10312E00E16E050EE26E9F0EE96E050EEA6EEECFB3
:10313E00E6FF0006FCE141EC0BF000017595FF0E79
:10314E00516E536A526A510E0501E96F000EEA6F15
:10315E000FEC12F0130E0B6E440E0C6E440E0D6E31
:10316E000D2EFED70C2EFCD70B2EFAD70000516A6F
:10317E00FF0E536E526A510EE96F000EEA6F0FEC9E
:10318E0012F0130E0B6E440E0C6E440E0D6E0D2EC1
:10319E00FED70C2EFCD70B2EFAD70000516A536ABD
:1031AE00FF0E526E510EE96F000EEA6F0FEC12F029
:1031BE00130E0B6E440E0C6E440E0D6E0D2EFED7BE
:1031CE000C2EFCD70B2EFAD70000516A536A526AA6
:1031DE00510EE96F000EEA6F0FEC12F0070E0B6E38
:1031EE00170E0C6E6A0E0D6E0D2EFED70C2EFCD722
:1031FE000B2EFAD70000D66BD76B0501000ED75DEC
:10320E0002E1110ED65DD8B02ED15080500E185C52
:10321E0005E35090186AD64BD72B0400E00E006ED3
:10322E00050E016EECEC13F0090E006E9F0EE16EB2
:10323E00050EE26EE00EE96E050EEA6EEECFE6FFCB
:10324E000006FCE1030E006E18C0DEF5000EDF6F07
:10325E00005004E0DE33DE9FFF0FFBD7000EDF6F62
:10326E00000ED75D02E1030ED65D2CE20F0E0601B5
:10327E001F6F010E206F010E216F0F0E226F010EB8
:10328E00236F010E246F0F0E256F010E266F010E98
:10329E00276F0F0E286F010E296F010E2A6F0F0E6A
:1032AE002B6F010E2C6F010E2D6F0F0E2E6F010E58
:1032BE002F6F010E306F010E316F010E326F0CEC5D
:1032CE0001F0D0D0030E0501D65D016E000ED75968
:1032DE00026E000E025C02E10C0E015C0FE3040EA6
:1032EE00006EA1C5CAF5000ECB6F005004E0CA33C4
:1032FE00CA9FFF0FFBD7000ECB6F04D0DEC5CAF5F9
:10330E00DFC5CBF5CAC51FF60601206B216B030E78
:10331E000501D65D016E000ED759026E000E025CDD
:10332E0002E10A0E015C09E30F0EA115CC6FCD6B05
:10333E00000ECD17000ECD6F04D0DEC5CCF5DFC567
:10334E00CDF5CCC522F60601236B246B030E0501C9
:10335E00D65D016E000ED759026E000E025C02E1C0
:10336E00080E015C0FE3040E006EA0C5CEF5000E34
:10337E00CF6F005004E0CE33CE9FFF0FFBD7000E71
:10338E00CF6F04D0DEC5CEF5DFC5CFF5CEC525F6A1
:10339E000601266B276B030E0501D65D016E000E2E
:1033AE00D759026E000E025C02E1060E015C09E3C3
:1033BE000F0EA015D06FD16B000ED117000ED16F6E
:1033CE0004D0DEC5D0F5DFC5D1F5D0C528F606018F
:1033DE00296B2A6B030E0501D65D016E000ED759BF
:1033EE00026E000E025C02E1040E015C0FE3040E9D
:1033FE00006E9FC5D2F5000ED36F005004E0D2339D
:10340E00D29FFF0FFBD7000ED36F04D0DEC5D2F5CF
:10341E00DFC5D3F5D2C52BF606012C6B2D6B030E33
:10342E000501D65D016E000ED759026E000E025CCC
:10343E0002E1020E015C09E30F0E9F15D46FD56BEE
:10344E00000ED517000ED56F04D0DEC5D4F5DFC53E
:10345E00D5F5D4C52EF606012F6B306B316B326B62
:10346E000CEC01F0CAD61E50010A08E1720E0501DD
:10347E00E96F000EEA6F0FEC12F016D01E50020A22
:10348E0013E10501030E006E000E016EA5C504F0DA
:10349E00000E056E8AEC0FF0540E0024E96F000E3C
:0A34AE000120EA6F0FEC12F012008B
:1034B800010E06011F6F206B216B010E226F010E9A
:1034C800236F246B0F0E256F266B276B0F0E286F4B
:1034D800296B2A6B006A05017FB9002A005002088F
:1034E80006012B6F2C6B2D6B026A05017FB9022A2E
:1034F80002C000F0003600900050040806012E6F4C
:0E3508002F6B306B316B326B0CEC01F012004C
:103516003BEC10F000520FE020C0E9F5FAEC11F098
:103526000050010FE96F14EC10F000C020F00050BD
:10353600600AD8B4206AE0EC13F0005213E020C011
:10354600E9F5FAEC11F00004E96F14EC10F000C094
:1035560020F0FF0EE96F14EC10F02050001802E185
:10356600590E206ED9EC0FF0005204E0D10E4B6ECE
:10357600020E4C6E070E06011F6F206B216B020EAA
:10358600226F010E236F246B22C025F62533259F5B
:103596002533259F2533259F2533259F3FC026F6B6
:1035A600276B0F0E2214286F296B2A6B016A0501FF
:1035B6007FBB012A0150010A0BE120C0CAF5CA33BC
:1035C600CA9FCA33CA9FCA33CA9FCA33CA9F02D088
:1035D6000F0ECA6FCAC52BF606012C6B2D6B016A3E
:1035E60005017FBB012A0150010A04E10F0E2014D8
:1035F600CB6F02D00F0ECB6FCBC52EF606012F6B0D
:0E360600306B010E316F326B0CEC01F01200D4
:103614003BEC10F0005210E0C60E0001745D0CE2A9
:10362400020E7425006E00C074F0720E0501E96F7D
:10363400000EEA6F0FEC12F0E0EC13F000520FE012
:10364400745100080CE2020E745D006E00C074F048
:10365400720E0501E96F000EEA6F0FEC12F0D9EC5F
:103664000FF000522CE0040E0501E96F74C0EAF576
:10367400FEEC0FF01E50000A08E1510E0501E96F3F
:10368400000EEA6F0FEC12F016D01E50020A13E17E
:103694000501030E006E000E016EA5C504F0000EB8
:1036A400056E8AEC0FF0540E0024E96F000E012021
:1036B400EA6F0FEC12F0210E4B6E000E4C6E0501FA
:1036C40074C0F7F5000EF86FF96FFA6FF733F79FD0
:1036D400000EF86FF96FFA6F6CEC06F0030E06013A
:1036E4001F6F206B216B030E226F010E236F246B5F
:1036F4000F0E256F266B276B0F0E286F296B2A6B15
:10370400016A05017FBB012A0150010A03E147C098
:10371400CAF502D00F0ECA6FCAC52BF606012C6B70
:103724002D6B016A05017FBB012A0150010A03E1E7
:1037340026C0CBF502D00F0ECB6FCBC52EF60601FB
:0E3744002F6B306B316B326B0CEC01F012000E
:103752003BEC10F000520DE05A0E1F5C0AE20F0E15
:103762001F24016E01C01FF001504B0A02E15A0EE4
:103772001F6EE0EC13F000520DE01F500F080AE23A
:103782000F0E1F5C016E01C01FF001504B0A02E1D7
:103792003C0E1F6ED9EC0FF000520BE00D0E05012E
:1037A200E96F1FC0EAF5FEEC0FF03F0E4B6E000E04
:1037B2004C6E1FC0F7F5000E0501F86FF96FFA6F36
:1037C2006CEC06F0060E06011F6F206B216B030ED8
:1037D200226F010E236F246B0F0E256F266B276B52
:1037E2000F0E286F296B2A6B016A05017FBB012A24
:1037F2000150010A03E147C0CAF502D00F0ECA6F99
:10380200CAC52BF606012C6B2D6B016A05017FBB25
:10381200012A0150010A03E126C0CBF502D00F0EA6
:10382200CB6FCBC52EF606012F6B306B316B326B33
:063832000CEC01F0120095
:103838003BEC10F00052D8A4508CE0EC13F000528E
:10384800D8A4509CD9EC0FF000520DE00E0E0501E3
:10385800E96F000E50BC010EEA6FFEEC0FF0470E48
:103868004B6E000E4C6E070E06011F6F206B216B0E
:10387800010E226F010E236F246B0F0E256F266B2E
:10388800276B0F0E286F296B2A6B0F0E2B6F2C6B73
:103898002D6B016A05017FBB012A0150010A05E170
:1038A800000E50BC010ECA6F02D00F0ECA6FCAC5F7
:1038B8002EF606012F6B306B316B326B0CEC01F07E
:0238C8001200EC
:1038CA00020E06011F6F206B216B010E226F010E83
:1038DA00236F246B0F0E256F000E000175BD010EBC
:1038EA000601266F276B0F0E286F296B000E000149
:1038FA0075BD010E06012A6F0F0E2B6F000E000117
:10390A0075BD010E06012C6F2D6B0F0E2E6F2F6BDE
:10391A00000E000175BD010E0601306F316B326B6E
:06392A000CEC01F012009C
:10393000020E06011F6F206B216B020E226F010E1B
:10394000236F246B0F0E256F266B276B0F0E286FCE
:10395000296B2A6B0F0E2B6F2C6B2D6BA5C52EF6CA
:0E3960002F6B306B316B326B0CEC01F01200F0
:10396E000F0EC16E070EB412F19E070E926E3C0E34
:10397E00936E400E946E956A966A806A816A826A28
:10398E00836A846A896A8A6A8B6A8C6A8D6AF29EF5
:10399E00F29CD59CD59AD598D596D584D582D580CE
:1039AE00D76AD66AF294D59EF28AF184CD8ECD9CDA
:1039BE00CD96CD92CD8ACD88E20ECF6EB40ECE6E60
:1039CE009E90CD809D809F80F08EF188F092F08841
:1039DE00010EC26E0C0EC16E8E0EC06E9E9C9D9C14
:1039EE00F286F290F180D09EF28EF28CD58E12007D
:1039FE003BEC10F000522AE0030E1E5C27E21E2A5A
:103A0E001E50010A07E1720EE96F000EEA6F0FEC0D
:103A1E0012F01CD01E50020A13E1030E006E000EAF
:103A2E00016EA5C504F0000E056E8AEC0FF0540E63
:103A3E000024E96F000E0120EA6F0FEC12F006D0A1
:103A4E00510EE96F000EEA6F0FEC12F0E0EC13F07E
:103A5E0000522DE01E5000082AE21E061E50010ADA
:103A6E0008E1720E0501E96F000EEA6F0FEC12F01D
:103A7E001ED01E50020A14E10501030E006E000E48
:103A8E00016EA5C504F0000E056E8AEC0FF0540E03
:103A9E000024E96F000E0120EA6F0FEC12F007D040
:103AAE000501510EE96F000EEA6F0FEC12F0D9EC22
:103ABE000FF000520BE0020E0501E96F1EC0EAF591
:103ACE00FEEC0FF01F0E4B6E000E4C6E030E060139
:103ADE001F6F206B216B010E226F010E236F246B63
:103AEE000F0E256F266B276B0F0E286F296B2A6B17
:103AFE000F0E2B6F2C6B2D6B016A05017FBB012AFC
:103B0E000150010A03E11EC0CAF502D00F0ECA6FA2
:103B1E00CAC52EF606012F6B306B316B326B0CEC77
:043B2E0001F0120090
:103B32003BEC10F0005210E0C60E0001725D0CE288
:103B4200020E7225006E00C072F0720E0501E96F5E
:103B5200000EEA6F0FEC12F0E0EC13F000520FE0EF
:103B6200725100080CE2020E725D006E00C072F02B
:103B7200720E0501E96F000EEA6F0FEC12F0D9EC3C
:103B82000FF000522CE0030E0501E96F72C0EAF556
:103B9200FEEC0FF01E50000A08E1510E0501E96F1C
:103BA200000EEA6F0FEC12F016D01E50020A13E15B
:103BB2000501030E006E000E016EA5C504F0000E95
:103BC200056E8AEC0FF0540E0024E96F000E0120FE
:103BD200EA6F0FEC12F0200E4B6E000E4C6E0501D8
:103BE20072C0F7F5000EF86FF96FFA6FF733F79FAF
:103BF200000EF86FF96FFA6F6CEC06F0030E060117
:103C02001F6F206B216B020E226F010E236F246B3C
:103C12000F0E256F266B276B0F0E286F296B2A6BF1
:103C2200016A05017FBB012A0150010A03E147C075
:103C3200CAF502D00F0ECA6FCAC52BF606012C6B4D
:103C42002D6B016A05017FBB012A0150010A03E1C4
:103C520026C0CBF502D00F0ECB6FCBC52EF60601D8
:0E3C62002F6B306B316B326B0CEC01F01200EB
:103C70003BEC10F00052D8A4508EE0EC13F0005250
:103C8000D8A4509ED9EC0FF000520DE0080E0501AB
:103C9000E96F000E50BE010EEA6FFEEC0FF0330E1E
:103CA0004B6E000E4C6E050E06011F6F206B216BD4
:103CB000010E226F010E236F246B0F0E256F266BF2
:103CC000276B0F0E286F296B2A6B0F0E2B6F2C6B37
:103CD0002D6B016A05017FBB012A0150010A05E134
:103CE000000E50BE010ECA6F02D00F0ECA6FCAC5B9
:103CF0002EF606012F6B306B316B326B0CEC01F042
:023D00001200AF
:103D020005017FA938D03BEC10F0005218E022C028
:103D1200E9F5FAEC11F00050010FE96F14EC10F024
:103D220000C022F00050120A05E13F52010ED8A451
:103D3200000E3F6E2250130A02E1010E226EE0ECE9
:103D420013F0005217E022C0E9F5FAEC11F000047A
:103D5200E96F14EC10F000C022F00050110A05E1E6
:103D62003F52010ED8A4000E3F6E2250000A02E11B
:103D7200120E226E2AD03BEC10F000520FE022C04D
:103D8200E9F5FAEC11F00050010FE96F14EC10F0B4
:103D920000C022F00050240AD8B4226AE0EC13F0EA
:103DA200005213E022C0E9F5FAEC11F00004E96FC9
:103DB20014EC10F000C022F0FF0EE96F14EC10F0CA
:103DC2002250001802E1230E226ED9EC0FF00052AD
:103DD20019E00F0E0501E96F22C0EAF5FEEC0FF0C3
:103DE200100E0501E96F20C0EAF5FEEC0FF0110E8E
:103DF2000501E96F3FC0EAF5FEEC0FF0480E4B6E8D
:103E0200000E4C6E070E06011F6F206B216B020E17
:103E1200226F010E236F246B016A05017FBB012A09
:103E22000150010A0BE122C0CAF5CA33CA9FCA3344
:103E3200CA9FCA33CA9FCA33CA9F02D00F0ECA6F23
:103E4200CAC525F6016A7FBB012A0150010A03E1B6
:103E52003FC0CBF501D0CB6BCBC526F60601276B55
:103E6200016A05017FBB012A0150010A04E10F0E1C
:103E72002214CC6F02D00F0ECC6FCCC528F60601EF
:103E8200296B2A6B20C02BF62B332B9F2B332B9FB6
:103E92002B332B9F2B332B9F2C6B2D6B0F0E201450
:103EA2002E6F2F6B306B010E316F326B0CEC01F009
:023EB2001200FC
:103EB4003BEC10F0005206E0508A1BC025F01B506A
:103EC4006408176EE0EC13F000520BE0509A070EF2
:103ED4000501E96F34EC0BF000C025F000506408D4
:103EE400176ED9EC0FF000520DE0060E0501E96FD4
:103EF400000E50BA010EEA6FFEEC0FF0290E4B6E65
:103F0400000E4C6E040E06011F6F206B216B010E18
:103F1400226F010E236F246B0F0E256F266B276B08
:103F24000F0E286F296B2A6B0F0E2B6F2C6B2D6BCA
:103F3400016A05017FBB012A0150010A05E1000E57
:103F440050BA010ECA6F02D00F0ECA6FCAC52EF640
:103F540006012F6B306B316B326B0CEC01F01200ED
:103F64003BEC10F0005207E0630E255C04E2252AC6
:103F740025506408176EE0EC13F0005207E025505A
:103F8400000804E2250625506408176ED9EC0FF0EA
:103F9400005215E0070E0501E96F25C0EAF5FEECB5
:103FA4000FF0060E0501E96F34EC0BF000B002D0FF
:103FB400509A01D0508A2A0E4B6E000E4C6E0501A9
:103FC40025C0F7F5000EF86FF96FFA6F6CEC06F088
:103FD400040E06011F6F206B216B020E226F010E6F
:103FE400236F246B0F0E256F266B276B0F0E286F24
:103FF400296B2A6B016A05017FBB012A0150010A62
:1040040003E147C0CAF502D00F0ECA6FCAC52BF62A
:1040140006012C6B2D6B016A05017FBB012A01503F
:10402400010A03E126C0CBF502D00F0ECB6FCBC53E
:104034002EF606012F6B306B316B326B0CEC01F0FA
:02404400120068
:1040460025C0CAF517C0CBF5320E256E320E176E97
:104056005080500E185C03E3186A454A462A18C079
:10406600CCF50501CC33CC9FCC33CC9FCC33CC9F45
:10407600020ECC25006E016A000E01220A0E046EA5
:10408600000E056E09EC06F008C000F009C001F04C
:1040960000C01FF6010E0601206F010E216F040EEF
:1040A6000501CC25006E016A000E01220A0E046E7F
:1040B600000E056E09EC06F008C000F009C001F01C
:1040C60000C022F6010E0601236F010E246F060EB4
:1040D6000501CC25006E016A000E01220A0E046E4F
:1040E600000E056E09EC06F008C000F009C001F0EC
:1040F60000C025F6010E0601266F010E276F080E79
:104106000501CC25006E016A000E01220A0E046E1E
:10411600000E056E09EC06F008C000F009C001F0BB
:1041260000C028F6010E0601296F010E2A6F030E44
:104136000501CC25006E016A000E01220A0E046EEE
:10414600000E056E09EC06F008C000F009C001F08B
:1041560000C02BF6010E06012C6F010E2D6FCCC58B
:104166002EF6010E2F6F010E306F316B326B0CEC99
:1041760001F0000E465C02E18E0E455C0FE250B681
:104186000DD03BEC10F0005209E1E0EC13F00052C8
:1041960005E1D9EC0FF0005201E108D05090186A01
:1041A600456A466A010E4B6E000E4C6ECAC525F076
:0641B600CBC517F012005A
:1041BC003BEC10F0005210E0C60E0001735D0CE2F7
:1041CC00020E7325006E00C073F0720E0501E96FCC
:1041DC00000EEA6F0FEC12F0E0EC13F000520FE05F
:1041EC00735100080CE2020E735D006E00C073F098
:1041FC00720E0501E96F000EEA6F0FEC12F0D9ECAC
:10420C000FF000522CE0050E0501E96F73C0EAF5C2
:10421C00FEEC0FF01E50000A08E1510E0501E96F8B
:10422C00000EEA6F0FEC12F016D01E50020A13E1CA
:10423C000501030E006E000E016EA5C504F0000E04
:10424C00056E8AEC0FF0540E0024E96F000E01206D
:10425C00EA6F0FEC12F0220E4B6E000E4C6E050145
:10426C0073C0F7F5000EF86FF96FFA6FF733F79F1D
:10427C00000EF86FF96FFA6F6CEC06F0030E060186
:10428C001F6F206B216B040E226F010E236F246BAA
:10429C000F0E256F266B276B0F0E286F296B2A6B61
:1042AC00016A05017FBB012A0150010A03E147C0E5
:1042BC00CAF502D00F0ECA6FCAC52BF606012C6BBD
:1042CC002D6B016A05017FBB012A0150010A03E134
:1042DC0026C0CBF502D00F0ECB6FCBC52EF6060148
:0E42EC002F6B306B316B326B0CEC01F012005B
:1042FA0005017FA938D03BEC10F0005218E024C029
:10430A00E9F5FAEC11F00050010FE96F14EC10F026
:10431A0000C024F00050120A05E12352010ED8A46D
:10432A00000E236E2450130A02E1010E246EE0EC03
:10433A0013F0005217E024C0E9F5FAEC11F000047A
:10434A00E96F14EC10F000C024F00050110A05E1E6
:10435A002352010ED8A4000E236E2450000A02E153
:10436A00120E246E2AD03BEC10F000520FE024C04B
:10437A00E9F5FAEC11F00050010FE96F14EC10F0B6
:10438A0000C024F00050240AD8B4246AE0EC13F0E8
:10439A00005213E024C0E9F5FAEC11F00004E96FC9
:1043AA0014EC10F000C024F0FF0EE96F14EC10F0CA
:1043BA002450001802E1230E246ED9EC0FF00052AB
:1043CA0019E0120E0501E96F24C0EAF5FEEC0FF0C0
:1043DA00130E0501E96F21C0EAF5FEEC0FF0140E89
:1043EA000501E96F23C0EAF5FEEC0FF0490E4B6EAA
:1043FA00000E4C6E070E06011F6F206B216B030E19
:10440A00226F010E236F246B016A05017FBB012A0B
:10441A000150010A0BE124C0CAF5CA33CA9FCA3344
:10442A00CA9FCA33CA9FCA33CA9F02D00F0ECA6F25
:10443A00CAC525F6016A7FBB012A0150010A03E1B8
:10444A0023C0CBF501D0CB6BCBC526F60601276B73
:10445A00016A05017FBB012A0150010A04E10F0E1E
:10446A002414CC6F02D00F0ECC6FCCC528F60601EF
:10447A00296B2A6B21C02BF62B332B9F2B332B9FB7
:10448A002B332B9F2B332B9F2C6B2D6B0F0E211451
:10449A002E6F2F6B306B010E316F326B0CEC01F00B
:0244AA001200FE
:1044AC003BEC10F000520BE1E0EC13F0005207E192
:1044BC00D9EC0FF0005203E150B601D026D0010E1A
:1044CC004B6E000E4C6E1D6A1E50010A08E1720EF6
:1044DC000501E96F000EEA6F0FEC12F016D01E50BA
:1044EC00020A13E10501030E006E000E016EA5C554
:1044FC0004F0000E056E8AEC0FF0540E0024E96FE8
:0C450C00000E0120EA6F0FEC12F012000C
:104518003BEC10F00052D8A47F87E0EC13F0005277
:1045280002E005017F97D9EC0FF000520DE01B0E59
:104538000501E96F000E7FB7010EEA6FFEEC0FF080
:104548005D0E4B6E000E4C6E090E06011F6F206B40
:10455800216B030E226F010E236F246B0F0E256F44
:10456800266B276B0F0E286F296B2A6B0F0E2B6F8C
:104578002C6B2D6B016A05017FBB012A0150010AD2
:1045880005E1000E7FB7010ECA6F02D00F0ECA6F89
:10459800CAC52EF606012F6B306B316B326B0CECF3
:0445A80001F012000C
:1045AC003BEC10F000520FE021C0E9F5FAEC11F0F1
:1045BC000050010FE96F14EC10F000C021F0005016
:1045CC00600AD8B4216AE0EC13F0005213E021C069
:1045DC00E9F5FAEC11F00004E96F14EC10F000C0EE
:1045EC0021F0FF0EE96F14EC10F02150001802E1DD
:1045FC00590E216ED9EC0FF0005204E0DB0E4B6E1D
:10460C00020E4C6E070E06011F6F206B216B030E02
:10461C00226F010E236F246B24C025F62533259FB2
:10462C002533259F2533259F2533259F23C026F62B
:10463C00276B0F0E2414286F296B2A6B016A050156
:10464C007FBB012A0150010A0BE121C0CAF5CA3314
:10465C00CA9FCA33CA9FCA33CA9FCA33CA9F02D0E1
:10466C000F0ECA6FCAC52BF606012C6B2D6B016A97
:10467C0005017FBB012A0150010A04E10F0E211430
:10468C00CB6F02D00F0ECB6FCBC52EF606012F6B66
:0E469C00306B010E316F326B0CEC01F012002E
:1046AA003BEC10F0005209E0800E1A18006E800EE2
:1046BA00640A005C02E20A0E1A26E0EC13F00052C9
:1046CA0009E0800E9C0A006E800E1A18005C02E255
:1046DA000A0E1A5ED9EC0FF000520BE0190E050112
:1046EA00E96F1AC0EAF5FEEC0FF05E0E4B6E000E93
:1046FA004C6E42C0F7F543C0F8F5000E0501F96F9C
:10470A00FA6F6CEC06F0090E06011F6F206B216B25
:10471A00040E226F010E236F246B0F0E256F266B7A
:10472A00276B0F0E286F296B2A6B016A05017FBB65
:10473A00012A0150010A03E141C0CAF502D00F0E55
:10474A00CA6FCAC52BF606012C6B2D6B016A0501CF
:10475A007FBB012A0150010A03E147C0CBF502D011
:10476A000F0ECB6FCBC52EF606012F6B306B316B5C
:08477A00326B0CEC01F012009F
:104782003BEC10F00052D8A45088E0EC13F0005239
:10479200D8A45098D9EC0FF000520DE0150E050187
:1047A200E96F000E50B8010EEA6FFEEC0FF0510EE9
:1047B2004B6E000E4C6E080E06011F6F206B216BB4
:1047C200010E226F010E236F246B0F0E256F266BD5
:1047D200276B0F0E286F296B2A6B0F0E2B6F2C6B1A
:1047E2002D6B016A05017FBB012A0150010A05E117
:1047F200000E50B8010ECA6F02D00F0ECA6FCAC5A2
:104802002EF606012F6B306B316B326B0CEC01F024
:02481200120092
:10481400016A026A800E0218006E800E005C02E1DA
:10482400C80E015C19E2828E020E0C6E8D0E0D6EA6
:104834000D2EFED70C2EFCD700000000829E080E21
:104844000C6E010E0D6E0D2EFED70C2EFCD7000043
:104854000000014A022ADED7070E0B6E170E0C6EFB
:104864006A0E0D6E0D2EFED70C2EFCD70B2EFAD72A
:104874000000016A026A800E0218006E800E005C5D
:1048840002E1C80E015C19E2828E020E0C6E8D0EDE
:104894000D6E0D2EFED70C2EFCD700000000829E5C
:1048A400080E0C6E010E0D6E0D2EFED70C2EFCD7CD
:1048B40000000000014A022ADED7070E0B6E170E15
:1048C4000C6E6A0E0D6E0D2EFED70C2EFCD70B2E21
:1048D400FAD70000016A026A800E0218006E800E88
:1048E400010A005C02E10E0E015C19E2828E020EE6
:1048F4000C6E8D0E0D6E0D2EFED70C2EFCD7000007
:104904000000829E080E0C6E010E0D6E0D2EFED759
:104914000C2EFCD700000000014A022ADDD7120049
:10492400080E06011F6F206B216B010E226F010E12
:10493400236F246B0F0E256F266B276B0F0E286FCA
:10494400296B2A6B0F0E2B6F2C6B2D6B000E50B83E
:10495400010E2E6F2F6B306B316B326B0CEC01F050
:0249640012003F
:10496600080E06011F6F206B216B020E226F010ECF
:10497600236F246B4DC025F62533259F2533259FB0
:104986002533259F2533259F4EC026F6276B0F0E10
:104996004D14286F296B2A6B4FC02BF62B332B9F98
:1049A6002B332B9F2B332B9F2B332B9F2C6B2D6B5A
:1049B6000F0E4F142E6F2F6B306B010E316F326B53
:0649C6000CEC01F01200F0
:1049CC00060E06011F6F206B216B010E226F010E6C
:1049DC00236F246B0F0E256F266B276B0F0E286F22
:1049EC00296B2A6B0F0E2B6F2C6B2D6B19C02EF6AF
:0E49FC002F6B306B316B326B0CEC01F0120044
:104A0A003BEC10F0005210E0ADC5E9F5FAEC11F0FC
:104A1A000050010FE96F14EC10F000C0ADF5005022
:104A2A00320A02E1010EAD6FE0EC13F000520FE022
:104A3A00ADC5E9F5FAEC11F00004E96F14EC10F0D9
:104A4A0000C0ADF50050000A02E1310EAD6FD9EC9D
:104A5A000FF0005204E0D30E4B6E000E4C6E016A4A
:104A6A0005017FBB012A0150010A0BE1ADC5CAF558
:104A7A00CA33CA9FCA33CA9FCA33CA9FCA33CA9F94
:104A8A0002D00F0ECA6FCAC51FF6000E7FBB010EF9
:104A9A000601206F216B016A05017FBB012A0150C3
:104AAA00010A04E10F0EAD15CB6F02D00F0ECB6FCA
:104ABA00CBC522F60601236B000E05017FBB010E52
:104ACA000601246FAFC525F62533259F2533259F7B
:104ADA002533259F2533259F010E266F276B0F0E41
:104AEA000501AF150601286F296B010E2A6FB0C5A3
:104AFA002BF62B332B9F2B332B9F2B332B9F2B33B5
:104B0A002B9F010E2C6F2D6B0F0E0501B0150601A0
:104B1A002E6F2F6B010E306F316B326B0CEC01F084
:024B2A00120077
:104B2C00090E06011F6F206B216B030E226F010E05
:104B3C00236F246B0F0E256F266B276B0F0E286FC0
:104B4C00296B2A6B0F0E2B6F2C6B2D6B000E050136
:104B5C007FB7010E06012E6F2F6B306B316B326BF2
:064B6C000CEC01F0120048
:104B720042C0F7F543C0F8F5000E0501F96FFA6F70
:104B82006CEC06F0090E06011F6F206B216B040E00
:104B9200226F010E236F246B0F0E256F266B276B7E
:104BA2000F0E286F296B2A6B41C02BF62C6B2D6BD5
:104BB20047C02EF62F6B306B316B326B0CEC01F071
:024BC2001200DF
:104BC400090E06011F6F206B216B010E226F010E6F
:104BD400236F246B0F0E256F266B276B0F0E286F28
:104BE400296B2A6B0F0E2B6F2C6B2D6B000E05019E
:104BF4007FBD010E06012E6F2F6B306B316B326B54
:064C04000CEC01F01200AF
:104C0A003BEC10F0005208E0070EAE5D05E2AE5133
:104C1A00010F006E00C0AEF5E0EC13F0005208E0A0
:104C2A000501AE51010804E2AE05006E00C0AEF502
:104C3A00D9EC0FF0005216E0AEC5A5F5090E006ECC
:104C4A00E90EE16E050EE26E9F0EE96E050EEA6E42
:104C5A00EECFE6FF0006FCE141EC0BF0160E4B6EC0
:104C6A00000E4C6E020E06011F6F206B216B020EA6
:104C7A00226F010E236F246B0F0E256F266B276B95
:104C8A000F0E286F296B2A6B0F0E2B6F2C6B2D6B57
:104C9A00016A05017FBB012A0150010A03E1AEC581
:104CAA00CAF502D00F0ECA6FCAC52EF606012F6BBF
:0C4CBA00306B316B326B0CEC01F012001F
:104CC60005017FA938D03BEC10F0005218E04DC02A
:104CD600E9F5FAEC11F00050010FE96F14EC10F051
:104CE60000C04DF00050120A05E14E52010ED8A444
:104CF600000E4E6E4D50130A02E1010E4D6EE0ECB1
:104D060013F0005217E04DC0E9F5FAEC11F000047B
:104D1600E96F14EC10F000C04DF00050110A05E1E7
:104D26004E52010ED8A4000E4E6E4D50000A02E1FE
:104D3600120E4D6E2AD03BEC10F000520FE04DC023
:104D4600E9F5FAEC11F00050010FE96F14EC10F0E0
:104D560000C04DF00050240AD8B44D6AE0EC13F0C0
:104D6600005213E04DC0E9F5FAEC11F00004E96FCA
:104D760014EC10F000C04DF0FF0EE96F14EC10F0CB
:104D86004D50001802E1230E4D6ED9EC0FF0005283
:104D960019E0160E0501E96F4DC0EAF5FEEC0FF0BD
:104DA600170E0501E96F4FC0EAF5FEEC0FF0180E7D
:104DB6000501E96F4EC0EAF5FEEC0FF0520E4B6EA0
:104DC600000E4C6E080E06011F6F206B216B020E43
:104DD600226F010E236F246B016A05017FBB012A36
:104DE6000150010A0BE14DC0CAF5CA33CA9FCA3346
:104DF600CA9FCA33CA9FCA33CA9F02D00F0ECA6F50
:104E0600CAC525F6016A7FBB012A0150010A03E1E2
:104E16004EC0CBF501D0CB6BCBC526F60601276B72
:104E2600016A05017FBB012A0150010A04E10F0E48
:104E36004D14CC6F02D00F0ECC6FCCC528F60601F0
:104E4600296B2A6B4FC02BF62B332B9F2B332B9FB3
:104E56002B332B9F2B332B9F2C6B2D6B0F0E4F144D
:104E66002E6F2F6B306B010E316F326B0CEC01F035
:024E7600120028
:104E78003BEC10F00052D8A47F8DE0EC13F0005208
:104E880002E005017F9DD9EC0FF000520DE0010E04
:104E98000501E96F000E7FBD010EEA6FFEEC0FF011
:104EA8005B0E4B6E000E4C6E090E06011F6F206BD9
:104EB800216B010E226F010E236F246B0F0E256FDD
:104EC800266B276B0F0E286F296B2A6B0F0E2B6F23
:104ED8002C6B2D6B016A05017FBB012A0150010A69
:104EE80005E1000E7FBD010ECA6F02D00F0ECA6F1A
:104EF800CAC52EF606012F6B306B316B326B0CEC8A
:044F080001F01200A2
:104F0C00060E06011F6F206B216B020E226F010E25
:104F1C00236F246B0F0E256F266B276B0F0E286FDC
:104F2C00296B2A6B0F0E2B6F2C6B2D6B000E50B454
:104F3C00010E2E6F2F6B306B316B326B0CEC01F062
:024F4C00120051
:104F4E003BEC10F000520FE04FC0E9F5FAEC11F017
:104F5E000050010FE96F14EC10F000C04FF000503C
:104F6E00600AD8B44F6AE0EC13F0005213E04FC061
:104F7E00E9F5FAEC11F00004E96F14EC10F000C042
:104F8E004FF0FF0EE96F14EC10F04F50001802E1D5
:104F9E00590E4F6ED9EC0FF0005204E0350E4B6EE9
:104FAE00030E4C6E080E06011F6F206B216B020E56
:104FBE00226F010E236F246B4DC025F62533259FDE
:104FCE002533259F2533259F2533259F4EC026F655
:104FDE00276B0F0E4D14286F296B2A6B016A050182
:104FEE007FBB012A0150010A0BE14FC0CAF5CA333B
:104FFE00CA9FCA33CA9FCA33CA9FCA33CA9F02D036
:10500E000F0ECA6FCAC52BF606012C6B2D6B016AEB
:10501E0005017FBB012A0150010A04E10F0E4F1456
:10502E00CB6F02D00F0ECB6FCBC52EF606012F6BBA
:0E503E00306B010E316F326B0CEC01F0120082
:10504C0027C0F7F5000E0501F86FF96FFA6F6CECDD
:10505C0006F0050E06011F6F206B216B020E226FEE
:10506C00010E236F246B0F0E256F266B276B0F0E13
:10507C00286F296B2A6B47C02BF62C6B2D6B26C027
:10508C002EF62F6B306B316B326B0CEC01F0120087
:10509C00050E06011F6F206B216B030E226F010E94
:1050AC00236F246B0F0E256F266B276B0F0E286F4B
:1050BC00296B2A6B0F0E2B6F2C6B2D6B000E50B2C5
:1050CC00010E2E6F2F6B306B316B326B0CEC01F0D1
:0250DC001200C0
:1050DE003BEC10F00052D8A47F85E0EC13F00052A8
:1050EE0002E005017F95D9EC0FF000520DE01A0E8B
:1050FE000501E96F000E7FB5010EEA6FFEEC0FF0B1
:10510E005C0E4B6E000E4C6E090E06011F6F206B6F
:10511E00216B020E226F010E236F246B0F0E256F73
:10512E00266B276B0F0E286F296B2A6B0F0E2B6FBA
:10513E002C6B2D6B016A05017FBB012A0150010A00
:10514E0005E1000E7FB5010ECA6F02D00F0ECA6FB9
:10515E00CAC52EF606012F6B306B316B326B0CEC21
:04516E0001F012003A
:105172003BEC10F00052D8A47F99E0EC13F00052FF
:1051820002E005017F89D9EC0FF00052D8B47BD13F
:105192000501A353D8B483D07FB981D0A25314E0C0
:1051A200A151120A03E1120ECA6F0BD0A1C5E9F593
:1051B200FAEC11F000500C0FE96F14EC10F000C083
:1051C200CAF5CAC5A1F509D0A151120A02E1CB6BF9
:1051D20002D0A1C5CBF5CBC5A1F5A26B3F5214E01D
:1051E2002250120A03E1120ECC6F0BD022C0E9F555
:1051F200FAEC11F000500C0FE96F14EC10F000C043
:10520200CCF5CCC522F009D02250120A02E1CD6BB6
:1052120002D022C0CDF5CDC522F03F6A235214E060
:105222002450120A03E1120ECE6F0BD024C0E9F50E
:10523200FAEC11F000500C0FE96F14EC10F000C002
:10524200CEF5CEC524F009D02450120A02E1CF6B6C
:1052520002D024C0CFF5CFC524F0236A4E5214E009
:105262004D50120A03E1120ED06F0BD04DC0E9F57A
:10527200FAEC11F000500C0FE96F14EC10F000C0C2
:10528200D0F5D0C54DF009D04D50120A02E1D16BD4
:1052920002D04DC0D1F5D1C54DF04E6A95D0A35381
:1052A200D8A492D07FA990D0120EA15D16E3A1518D
:1052B200120A03E1120ED26F0BD0A1C5E9F5FAEC86
:1052C20011F00C0E005CE96F14EC10F000C0D2F586
:1052D200D2C5A1F5010EA26F0BD0A151000A03E1C4
:1052E200120ED36F02D0A1C5D3F5D3C5A1F5A26B1F
:1052F200120E225C16E32250120A03E1120ED46F40
:105302000BD022C0E9F5FAEC11F00C0E005CE96F4B
:1053120014EC10F000C0D4F5D4C522F0010E3F6E9B
:105322000BD02250000A03E1120ED56F02D022C028
:10533200D5F5D5C522F03F6A120E245C16E324503F
:10534200120A03E1120ED66F0BD024C0E9F5FAEC73
:1053520011F00C0E005CE96F14EC10F000C0D6F5F1
:10536200D6C524F0010E236E0BD02450000A03E1AF
:10537200120ED76F02D024C0D7F5D7C524F0236A06
:10538200120E4D5C16E34D50120A03E1120ED86F55
:105392000BD04DC0E9F5FAEC11F00C0E005CE96F90
:1053A20014EC10F000C0D8F5D8C54DF0010E4E6EC9
:1053B2000BD04D50000A03E1120ED96F02D04DC03E
:1053C200D9F5D9C54DF04E6A000E7FB9010EA36F13
:1053D200090E006EE90EE16E050EE26E9F0EE96E99
:1053E200050EEA6EEECFE6FF0006FCE141EC0BF0A3
:1053F2000501E96B000E7FB9010EEA6FFEEC0FF0BA
:105402000F0E0501E96F22C0EAF5FEEC0FF0100E57
:105412000501E96F20C0EAF5FEEC0FF0110E05015F
:10542200E96F3FC0EAF5FEEC0FF0120E0501E96FDD
:1054320024C0EAF5FEEC0FF0130E0501E96F21C05E
:10544200EAF5FEEC0FF0140E0501E96F23C0EAF550
:10545200FEEC0FF0160E0501E96F4DC0EAF5FEEC09
:105462000FF0170E0501E96F4FC0EAF5FEEC0FF0E1
:10547200180E0501E96F4EC0EAF5FEEC0FF00B0EB7
:105482004B6E000E4C6E010E06011F6F206B216BDE
:10549200010E226F010E236F246B0F0E256F266BF8
:1054A200276B0F0E286F296B2A6B016A05017FBBE0
:1054B200012A0150010A09E1006A7FB9002A00505D
:1054C2000208DA6F000EDB6F04D00F0EDA6F000EE7
:1054D200DB6FDAC52BF606012C6B2D6B016A050119
:1054E2007FBB012A0150010A0DE1026A7FB9022A3B
:1054F20002C000F00036009000500408DC6F000E7D
:10550200DD6F04D00F0EDC6F000EDD6FDCC52EF6F2
:1055120006012F6B306B316B326B0CEC01F0120019
:105522003BEC10F000520FE0A8C5E9F5FAEC11F0DF
:105532000050010FE96F14EC10F000C0A8F5005004
:10554200600AD8B4A86BE0EC13F0005213E0A8C5CF
:10555200E9F5FAEC11F00004E96F14EC10F000C068
:10556200A8F5FF0EE96F14EC10F0A851001802E143
:10557200590EA86FD9EC0FF0005204E0790E4B6E71
:10558200000E4C6EAAC51FF606011F331F9F1F3364
:105592001F9F1F331F9F1F331F9FABC520F6216B19
:1055A2000F0E0501AA150601226F236B246BA9C5F4
:1055B20025F62533259F2533259F2533259F253322
:1055C200259F266B276B0F0E0501A9150601286F73
:1055D200296B2A6B016A05017FBB012A0150010A6E
:1055E2000BE1A8C5CAF5CA33CA9FCA33CA9FCA33D8
:1055F200CA9FCA33CA9F02D00F0ECA6FCAC52BF602
:1056020006012C6B2D6B016A05017FBB012A01503B
:10561200010A04E10F0EA815CB6F02D00F0ECB6F5B
:10562200CBC52EF606012F6B306B010E316F010ECA
:08563200326F0CEC01F01200D4
:10563A003BEC10F0005213E0B0C5E9F5FAEC11F0BA
:10564A000050010FE96F14EC10F000C0B0F5640EC1
:10565A00E96F14EC10F0B0510018D8B4AA6BE0EC62
:10566A0013F0005213E0B0C5E9F5FAEC11F00004AA
:10567A00E96F14EC10F000C0B0F5FF0EE96F14ECFE
:10568A0010F0B051001802E1990EAA6FD9EC0FF090
:10569A0000521AE0ADC5A4F5AFC5A6F5B0C5A7F589
:1056AA00090E006EE90EE16E050EE26E9F0EE96EBE
:1056BA00050EEA6EEECFE6FF0006FCE141EC0BF0C8
:1056CA00150E4B6E000E4C6EADC51FF606011F334C
:1056DA001F9F1F331F9F1F331F9F1F331F9F010EC3
:1056EA00206F216B0F0E0501AD150601226F236B8A
:1056FA00010E246FAFC525F62533259F2533259F37
:10570A002533259F2533259F010E266F276B0F0E04
:10571A000501AF150601286F296B010E2A6F016A70
:10572A0005017FBB012A0150010A0BE1B0C5CAF588
:10573A00CA33CA9FCA33CA9FCA33CA9FCA33CA9FC7
:10574A0002D00F0ECA6FCAC52BF6000E7FBB010E20
:10575A0006012C6F2D6B016A05017FBB012A0150DE
:10576A00010A04E10F0EB015CB6F02D00F0ECB6FFA
:10577A00CBC52EF606012F6B000E05017FBB010E6D
:0E578A000601306F316B326B0CEC01F0120037
:105798003BEC10F000520DE03C0E275C0AE20A0ECA
:1057A8002724016E01C027F00150280A02E13C0EAF
:1057B800276EE0EC13F000520DE027500A080AE2C9
:1057C8000A0E275C016E01C027F00150320A02E17F
:1057D8001E0E276ED9EC0FF000520BE0090E0501E2
:1057E800E96F27C0EAF5FEEC0FF0340E4B6E000EA1
:1057F8004C6E27C0F7F5000E0501F86FF96FFA6FC8
:105808006CEC06F0050E06011F6F206B216B020E73
:10581800226F010E236F246B0F0E256F266B276BEB
:105828000F0E286F296B2A6B016A05017FBB012ABD
:105838000150010A03E147C0CAF502D00F0ECA6F32
:10584800CAC52BF606012C6B2D6B016A05017FBBBF
:10585800012A0150010A03E126C0CBF502D00F0E40
:10586800CB6FCBC52EF606012F6B306B316B326BCD
:065878000CEC01F012002F
:10587E003BEC10F00052D8A45082E0EC13F0005232
:10588E00D8A45092D9EC0FF000520DE00A0E05018B
:10589E00E96F000E50B2010EEA6FFEEC0FF0350EFE
:1058AE004B6E000E4C6E050E06011F6F206B216BAA
:1058BE00030E226F010E236F246B0F0E256F266BC6
:1058CE00276B0F0E286F296B2A6B0F0E2B6F2C6B0D
:1058DE002D6B016A05017FBB012A0150010A05E10A
:1058EE00000E50B2010ECA6F02D00F0ECA6FCAC59B
:1058FE002EF606012F6B306B316B326B0CEC01F018
:02590E00120085
:105910003BEC10F0005204E0050E195CD8A0192AE7
:10592000E0EC13F0005204E019500108D8A0190669
:10593000D9EC0FF000520BE00B0E0501E96F19C016
:10594000EAF5FEEC0FF03D0E4B6E000E4C6E060EAF
:1059500006011F6F206B216B010E226F010E236F5A
:10596000246B0F0E256F266B276B0F0E286F296B8C
:105970002A6B0F0E2B6F2C6B2D6B016A05017FBB01
:10598000012A0150010A03E119C0CAF502D00F0E25
:10599000CA6FCAC52EF606012F6B306B316B326BA6
:0659A0000CEC01F0120006
:1059A6003BEC10F00052D8A45084E0EC13F0005207
:1059B600D8A45094D9EC0FF000520DE00C0E05015E
:1059C600E96F000E50B4010EEA6FFEEC0FF03E0ECA
:1059D6004B6E000E4C6E060E06011F6F206B216B80
:1059E600020E226F010E236F246B0F0E256F266B9E
